{
  "_format": "hh-sol-artifact-1",
  "contractName": "FundMe",
  "sourceName": "contracts/FundMe.sol",
  "abi": [
    {
      "inputs": [
        {
          "internalType": "address",
          "name": "priceFeedAddress",
          "type": "address"
        }
      ],
      "stateMutability": "nonpayable",
      "type": "constructor"
    },
    {
      "inputs": [],
      "name": "FundMe__NotOwner",
      "type": "error"
    },
    {
      "inputs": [],
      "name": "MINIMUM_USD",
      "outputs": [
        {
          "internalType": "uint256",
          "name": "",
          "type": "uint256"
        }
      ],
      "stateMutability": "view",
      "type": "function"
    },
    {
      "inputs": [],
      "name": "cheaperWithdraw",
      "outputs": [],
      "stateMutability": "nonpayable",
      "type": "function"
    },
    {
      "inputs": [],
      "name": "fund",
      "outputs": [],
      "stateMutability": "payable",
      "type": "function"
    },
    {
      "inputs": [
        {
          "internalType": "address",
          "name": "fundingAddress",
          "type": "address"
        }
      ],
      "name": "getAddressToAmountFunded",
      "outputs": [
        {
          "internalType": "uint256",
          "name": "",
          "type": "uint256"
        }
      ],
      "stateMutability": "view",
      "type": "function"
    },
    {
      "inputs": [
        {
          "internalType": "uint256",
          "name": "index",
          "type": "uint256"
        }
      ],
      "name": "getFunder",
      "outputs": [
        {
          "internalType": "address",
          "name": "",
          "type": "address"
        }
      ],
      "stateMutability": "view",
      "type": "function"
    },
    {
      "inputs": [],
      "name": "getOwner",
      "outputs": [
        {
          "internalType": "address",
          "name": "",
          "type": "address"
        }
      ],
      "stateMutability": "view",
      "type": "function"
    },
    {
      "inputs": [],
      "name": "priceFeed",
      "outputs": [
        {
          "internalType": "contract AggregatorV3Interface",
          "name": "",
          "type": "address"
        }
      ],
      "stateMutability": "view",
      "type": "function"
    },
    {
      "inputs": [],
      "name": "withdraw",
      "outputs": [],
      "stateMutability": "nonpayable",
      "type": "function"
    }
  ],
  "bytecode": "0x60a060405234801561001057600080fd5b506040516111e23803806111e283398181016040528101906100329190610110565b3373ffffffffffffffffffffffffffffffffffffffff1660808173ffffffffffffffffffffffffffffffffffffffff168152505080600260006101000a81548173ffffffffffffffffffffffffffffffffffffffff021916908373ffffffffffffffffffffffffffffffffffffffff1602179055505061013d565b600080fd5b600073ffffffffffffffffffffffffffffffffffffffff82169050919050565b60006100dd826100b2565b9050919050565b6100ed816100d2565b81146100f857600080fd5b50565b60008151905061010a816100e4565b92915050565b600060208284031215610126576101256100ad565b5b6000610134848285016100fb565b91505092915050565b60805161106e610174600039600081816101fe0152818161038b0152818161048d015281816105ee01526107de015261106e6000f3fe60806040526004361061007b5760003560e01c8063893d20e81161004e578063893d20e81461012a578063b60d428814610155578063be2693f01461015f578063d7b4750c146101765761007b565b80630343fb25146100805780633ccfd60b146100bd5780636b69a592146100d4578063741bef1a146100ff575b600080fd5b34801561008c57600080fd5b506100a760048036038101906100a29190610ac8565b6101b3565b6040516100b49190610b0e565b60405180910390f35b3480156100c957600080fd5b506100d26101fc565b005b3480156100e057600080fd5b506100e9610456565b6040516100f69190610b0e565b60405180910390f35b34801561010b57600080fd5b50610114610463565b6040516101219190610b88565b60405180910390f35b34801561013657600080fd5b5061013f610489565b60405161014c9190610bb2565b60405180910390f35b61015d6104b1565b005b34801561016b57600080fd5b506101746105ec565b005b34801561018257600080fd5b5061019d60048036038101906101989190610bf9565b6108aa565b6040516101aa9190610bb2565b60405180910390f35b6000600160008373ffffffffffffffffffffffffffffffffffffffff1673ffffffffffffffffffffffffffffffffffffffff168152602001908152602001600020549050919050565b7f000000000000000000000000000000000000000000000000000000000000000073ffffffffffffffffffffffffffffffffffffffff163373ffffffffffffffffffffffffffffffffffffffff1614610281576040517f579610db00000000000000000000000000000000000000000000000000000000815260040160405180910390fd5b60005b6000805490508110156103265760008082815481106102a6576102a5610c26565b5b9060005260206000200160009054906101000a900473ffffffffffffffffffffffffffffffffffffffff1690506000600160008373ffffffffffffffffffffffffffffffffffffffff1673ffffffffffffffffffffffffffffffffffffffff16815260200190815260200160002081905550508080600101915050610284565b50600067ffffffffffffffff81111561034257610341610c55565b5b6040519080825280602002602001820160405280156103705781602001602082028036833780820191505090505b50600090805190602001906103869291906109be565b5060007f000000000000000000000000000000000000000000000000000000000000000073ffffffffffffffffffffffffffffffffffffffff16476040516103cd90610cb5565b60006040518083038185875af1925050503d806000811461040a576040519150601f19603f3d011682016040523d82523d6000602084013e61040f565b606091505b5050905080610453576040517f08c379a000000000000000000000000000000000000000000000000000000000815260040161044a90610d27565b60405180910390fd5b50565b6802b5e3af16b188000081565b600260009054906101000a900473ffffffffffffffffffffffffffffffffffffffff1681565b60007f0000000000000000000000000000000000000000000000000000000000000000905090565b6802b5e3af16b18800006104f0600260009054906101000a900473ffffffffffffffffffffffffffffffffffffffff16346108f190919063ffffffff16565b1015610531576040517f08c379a000000000000000000000000000000000000000000000000000000000815260040161052890610d93565b60405180910390fd5b34600160003373ffffffffffffffffffffffffffffffffffffffff1673ffffffffffffffffffffffffffffffffffffffff16815260200190815260200160002060008282546105809190610de2565b925050819055506000339080600181540180825580915050600190039060005260206000200160009091909190916101000a81548173ffffffffffffffffffffffffffffffffffffffff021916908373ffffffffffffffffffffffffffffffffffffffff160217905550565b7f000000000000000000000000000000000000000000000000000000000000000073ffffffffffffffffffffffffffffffffffffffff163373ffffffffffffffffffffffffffffffffffffffff1614610671576040517f579610db00000000000000000000000000000000000000000000000000000000815260040160405180910390fd5b6000808054806020026020016040519081016040528092919081815260200182805480156106f457602002820191906000526020600020905b8160009054906101000a900473ffffffffffffffffffffffffffffffffffffffff1673ffffffffffffffffffffffffffffffffffffffff16815260200190600101908083116106aa575b5050505050905060005b815181101561077957600082828151811061071c5761071b610c26565b5b602002602001015190506000600160008373ffffffffffffffffffffffffffffffffffffffff1673ffffffffffffffffffffffffffffffffffffffff168152602001908152602001600020819055505080806001019150506106fe565b50600067ffffffffffffffff81111561079557610794610c55565b5b6040519080825280602002602001820160405280156107c35781602001602082028036833780820191505090505b50600090805190602001906107d99291906109be565b5060007f000000000000000000000000000000000000000000000000000000000000000073ffffffffffffffffffffffffffffffffffffffff164760405161082090610cb5565b60006040518083038185875af1925050503d806000811461085d576040519150601f19603f3d011682016040523d82523d6000602084013e610862565b606091505b50509050806108a6576040517f08c379a000000000000000000000000000000000000000000000000000000000815260040161089d90610d27565b60405180910390fd5b5050565b60008082815481106108bf576108be610c26565b5b9060005260206000200160009054906101000a900473ffffffffffffffffffffffffffffffffffffffff169050919050565b6000806108fd8361092d565b90506000670de0b6b3a764000085836109169190610e16565b6109209190610e87565b9050809250505092915050565b6000808273ffffffffffffffffffffffffffffffffffffffff1663feaf968c6040518163ffffffff1660e01b815260040160a060405180830381865afa15801561097b573d6000803e3d6000fd5b505050506040513d601f19601f8201168201806040525081019061099f9190610f45565b5050509150506402540be400816109b69190610fc0565b915050919050565b828054828255906000526020600020908101928215610a37579160200282015b82811115610a365782518260006101000a81548173ffffffffffffffffffffffffffffffffffffffff021916908373ffffffffffffffffffffffffffffffffffffffff160217905550916020019190600101906109de565b5b509050610a449190610a48565b5090565b5b80821115610a61576000816000905550600101610a49565b5090565b600080fd5b600073ffffffffffffffffffffffffffffffffffffffff82169050919050565b6000610a9582610a6a565b9050919050565b610aa581610a8a565b8114610ab057600080fd5b50565b600081359050610ac281610a9c565b92915050565b600060208284031215610ade57610add610a65565b5b6000610aec84828501610ab3565b91505092915050565b6000819050919050565b610b0881610af5565b82525050565b6000602082019050610b236000830184610aff565b92915050565b6000819050919050565b6000610b4e610b49610b4484610a6a565b610b29565b610a6a565b9050919050565b6000610b6082610b33565b9050919050565b6000610b7282610b55565b9050919050565b610b8281610b67565b82525050565b6000602082019050610b9d6000830184610b79565b92915050565b610bac81610a8a565b82525050565b6000602082019050610bc76000830184610ba3565b92915050565b610bd681610af5565b8114610be157600080fd5b50565b600081359050610bf381610bcd565b92915050565b600060208284031215610c0f57610c0e610a65565b5b6000610c1d84828501610be4565b91505092915050565b7f4e487b7100000000000000000000000000000000000000000000000000000000600052603260045260246000fd5b7f4e487b7100000000000000000000000000000000000000000000000000000000600052604160045260246000fd5b600081905092915050565b50565b6000610c9f600083610c84565b9150610caa82610c8f565b600082019050919050565b6000610cc082610c92565b9150819050919050565b600082825260208201905092915050565b7f5472616e73666572206661696c65640000000000000000000000000000000000600082015250565b6000610d11600f83610cca565b9150610d1c82610cdb565b602082019050919050565b60006020820190508181036000830152610d4081610d04565b9050919050565b7f596f75206e65656420746f207370656e64206d6f726520455448210000000000600082015250565b6000610d7d601b83610cca565b9150610d8882610d47565b602082019050919050565b60006020820190508181036000830152610dac81610d70565b9050919050565b7f4e487b7100000000000000000000000000000000000000000000000000000000600052601160045260246000fd5b6000610ded82610af5565b9150610df883610af5565b9250828201905080821115610e1057610e0f610db3565b5b92915050565b6000610e2182610af5565b9150610e2c83610af5565b9250828202610e3a81610af5565b91508282048414831517610e5157610e50610db3565b5b5092915050565b7f4e487b7100000000000000000000000000000000000000000000000000000000600052601260045260246000fd5b6000610e9282610af5565b9150610e9d83610af5565b925082610ead57610eac610e58565b5b828204905092915050565b600069ffffffffffffffffffff82169050919050565b610ed781610eb8565b8114610ee257600080fd5b50565b600081519050610ef481610ece565b92915050565b6000819050919050565b610f0d81610efa565b8114610f1857600080fd5b50565b600081519050610f2a81610f04565b92915050565b600081519050610f3f81610bcd565b92915050565b600080600080600060a08688031215610f6157610f60610a65565b5b6000610f6f88828901610ee5565b9550506020610f8088828901610f1b565b9450506040610f9188828901610f30565b9350506060610fa288828901610f30565b9250506080610fb388828901610ee5565b9150509295509295909350565b6000610fcb82610efa565b9150610fd683610efa565b9250828202610fe481610efa565b91507f8000000000000000000000000000000000000000000000000000000000000000841460008412161561101c5761101b610db3565b5b828205841483151761103157611030610db3565b5b509291505056fea2646970667358221220f76173276c9440e53c9da7f094122e157a3e29d9ab34f39e9a68369d9902e5c564736f6c634300081c0033",
  "linkReferences": {},
  "deployedLinkReferences": {}
}