{
  "_format": "hh-sol-artifact-1",
  "contractName": "FundMe",
  "sourceName": "contracts/FundMe.sol",
  "abi": [
    {
      "inputs": [
        {
          "internalType": "address",
          "name": "s_priceFeedAddress",
          "type": "address"
        }
      ],
      "stateMutability": "nonpayable",
      "type": "constructor"
    },
    {
      "inputs": [],
      "name": "FundMe__NotOwner",
      "type": "error"
    },
    {
      "inputs": [],
      "name": "MINIMUM_USD",
      "outputs": [
        {
          "internalType": "uint256",
          "name": "",
          "type": "uint256"
        }
      ],
      "stateMutability": "view",
      "type": "function"
    },
    {
      "inputs": [],
      "name": "cheaperWithdraw",
      "outputs": [],
      "stateMutability": "payable",
      "type": "function"
    },
    {
      "inputs": [],
      "name": "fund",
      "outputs": [],
      "stateMutability": "payable",
      "type": "function"
    },
    {
      "inputs": [
        {
          "internalType": "address",
          "name": "fundingAddress",
          "type": "address"
        }
      ],
      "name": "getAddressToAmountFunded",
      "outputs": [
        {
          "internalType": "uint256",
          "name": "",
          "type": "uint256"
        }
      ],
      "stateMutability": "view",
      "type": "function"
    },
    {
      "inputs": [
        {
          "internalType": "uint256",
          "name": "index",
          "type": "uint256"
        }
      ],
      "name": "getFunder",
      "outputs": [
        {
          "internalType": "address",
          "name": "",
          "type": "address"
        }
      ],
      "stateMutability": "view",
      "type": "function"
    },
    {
      "inputs": [],
      "name": "getOwner",
      "outputs": [
        {
          "internalType": "address",
          "name": "",
          "type": "address"
        }
      ],
      "stateMutability": "view",
      "type": "function"
    },
    {
      "inputs": [],
      "name": "s_priceFeed",
      "outputs": [
        {
          "internalType": "contract AggregatorV3Interface",
          "name": "",
          "type": "address"
        }
      ],
      "stateMutability": "view",
      "type": "function"
    },
    {
      "inputs": [],
      "name": "withdraw",
      "outputs": [],
      "stateMutability": "payable",
      "type": "function"
    }
  ],
  "bytecode": "0x60a060405234801561001057600080fd5b506040516111b83803806111b883398181016040528101906100329190610110565b3373ffffffffffffffffffffffffffffffffffffffff1660808173ffffffffffffffffffffffffffffffffffffffff168152505080600260006101000a81548173ffffffffffffffffffffffffffffffffffffffff021916908373ffffffffffffffffffffffffffffffffffffffff1602179055505061013d565b600080fd5b600073ffffffffffffffffffffffffffffffffffffffff82169050919050565b60006100dd826100b2565b9050919050565b6100ed816100d2565b81146100f857600080fd5b50565b60008151905061010a816100e4565b92915050565b600060208284031215610126576101256100ad565b5b6000610134848285016100fb565b91505092915050565b6080516110446101746000396000818161020a015281816103970152818161046b015281816105c401526107b401526110446000f3fe60806040526004361061007b5760003560e01c8063893d20e81161004e578063893d20e81461011d578063b60d428814610148578063be2693f014610152578063d7b4750c1461015c5761007b565b80630343fb25146100805780630ec3b027146100bd5780633ccfd60b146100e85780636b69a592146100f2575b600080fd5b34801561008c57600080fd5b506100a760048036038101906100a29190610a9e565b610199565b6040516100b49190610ae4565b60405180910390f35b3480156100c957600080fd5b506100d26101e2565b6040516100df9190610b5e565b60405180910390f35b6100f0610208565b005b3480156100fe57600080fd5b50610107610462565b6040516101149190610ae4565b60405180910390f35b34801561012957600080fd5b50610132610467565b60405161013f9190610b88565b60405180910390f35b61015061048f565b005b61015a6105c2565b005b34801561016857600080fd5b50610183600480360381019061017e9190610bcf565b610880565b6040516101909190610b88565b60405180910390f35b6000600160008373ffffffffffffffffffffffffffffffffffffffff1673ffffffffffffffffffffffffffffffffffffffff168152602001908152602001600020549050919050565b600260009054906101000a900473ffffffffffffffffffffffffffffffffffffffff1681565b7f000000000000000000000000000000000000000000000000000000000000000073ffffffffffffffffffffffffffffffffffffffff163373ffffffffffffffffffffffffffffffffffffffff161461028d576040517f579610db00000000000000000000000000000000000000000000000000000000815260040160405180910390fd5b60005b6000805490508110156103325760008082815481106102b2576102b1610bfc565b5b9060005260206000200160009054906101000a900473ffffffffffffffffffffffffffffffffffffffff1690506000600160008373ffffffffffffffffffffffffffffffffffffffff1673ffffffffffffffffffffffffffffffffffffffff16815260200190815260200160002081905550508080600101915050610290565b50600067ffffffffffffffff81111561034e5761034d610c2b565b5b60405190808252806020026020018201604052801561037c5781602001602082028036833780820191505090505b5060009080519060200190610392929190610994565b5060007f000000000000000000000000000000000000000000000000000000000000000073ffffffffffffffffffffffffffffffffffffffff16476040516103d990610c8b565b60006040518083038185875af1925050503d8060008114610416576040519150601f19603f3d011682016040523d82523d6000602084013e61041b565b606091505b505090508061045f576040517f08c379a000000000000000000000000000000000000000000000000000000000815260040161045690610cfd565b60405180910390fd5b50565b603281565b60007f0000000000000000000000000000000000000000000000000000000000000000905090565b60326104c6600260009054906101000a900473ffffffffffffffffffffffffffffffffffffffff16346108c790919063ffffffff16565b1015610507576040517f08c379a00000000000000000000000000000000000000000000000000000000081526004016104fe90610d69565b60405180910390fd5b34600160003373ffffffffffffffffffffffffffffffffffffffff1673ffffffffffffffffffffffffffffffffffffffff16815260200190815260200160002060008282546105569190610db8565b925050819055506000339080600181540180825580915050600190039060005260206000200160009091909190916101000a81548173ffffffffffffffffffffffffffffffffffffffff021916908373ffffffffffffffffffffffffffffffffffffffff160217905550565b7f000000000000000000000000000000000000000000000000000000000000000073ffffffffffffffffffffffffffffffffffffffff163373ffffffffffffffffffffffffffffffffffffffff1614610647576040517f579610db00000000000000000000000000000000000000000000000000000000815260040160405180910390fd5b6000808054806020026020016040519081016040528092919081815260200182805480156106ca57602002820191906000526020600020905b8160009054906101000a900473ffffffffffffffffffffffffffffffffffffffff1673ffffffffffffffffffffffffffffffffffffffff1681526020019060010190808311610680575b5050505050905060005b815181101561074f5760008282815181106106f2576106f1610bfc565b5b602002602001015190506000600160008373ffffffffffffffffffffffffffffffffffffffff1673ffffffffffffffffffffffffffffffffffffffff168152602001908152602001600020819055505080806001019150506106d4565b50600067ffffffffffffffff81111561076b5761076a610c2b565b5b6040519080825280602002602001820160405280156107995781602001602082028036833780820191505090505b50600090805190602001906107af929190610994565b5060007f000000000000000000000000000000000000000000000000000000000000000073ffffffffffffffffffffffffffffffffffffffff16476040516107f690610c8b565b60006040518083038185875af1925050503d8060008114610833576040519150601f19603f3d011682016040523d82523d6000602084013e610838565b606091505b505090508061087c576040517f08c379a000000000000000000000000000000000000000000000000000000000815260040161087390610cfd565b60405180910390fd5b5050565b600080828154811061089557610894610bfc565b5b9060005260206000200160009054906101000a900473ffffffffffffffffffffffffffffffffffffffff169050919050565b6000806108d383610903565b90506000670de0b6b3a764000085836108ec9190610dec565b6108f69190610e5d565b9050809250505092915050565b6000808273ffffffffffffffffffffffffffffffffffffffff1663feaf968c6040518163ffffffff1660e01b815260040160a060405180830381865afa158015610951573d6000803e3d6000fd5b505050506040513d601f19601f820116820180604052508101906109759190610f1b565b5050509150506402540be4008161098c9190610f96565b915050919050565b828054828255906000526020600020908101928215610a0d579160200282015b82811115610a0c5782518260006101000a81548173ffffffffffffffffffffffffffffffffffffffff021916908373ffffffffffffffffffffffffffffffffffffffff160217905550916020019190600101906109b4565b5b509050610a1a9190610a1e565b5090565b5b80821115610a37576000816000905550600101610a1f565b5090565b600080fd5b600073ffffffffffffffffffffffffffffffffffffffff82169050919050565b6000610a6b82610a40565b9050919050565b610a7b81610a60565b8114610a8657600080fd5b50565b600081359050610a9881610a72565b92915050565b600060208284031215610ab457610ab3610a3b565b5b6000610ac284828501610a89565b91505092915050565b6000819050919050565b610ade81610acb565b82525050565b6000602082019050610af96000830184610ad5565b92915050565b6000819050919050565b6000610b24610b1f610b1a84610a40565b610aff565b610a40565b9050919050565b6000610b3682610b09565b9050919050565b6000610b4882610b2b565b9050919050565b610b5881610b3d565b82525050565b6000602082019050610b736000830184610b4f565b92915050565b610b8281610a60565b82525050565b6000602082019050610b9d6000830184610b79565b92915050565b610bac81610acb565b8114610bb757600080fd5b50565b600081359050610bc981610ba3565b92915050565b600060208284031215610be557610be4610a3b565b5b6000610bf384828501610bba565b91505092915050565b7f4e487b7100000000000000000000000000000000000000000000000000000000600052603260045260246000fd5b7f4e487b7100000000000000000000000000000000000000000000000000000000600052604160045260246000fd5b600081905092915050565b50565b6000610c75600083610c5a565b9150610c8082610c65565b600082019050919050565b6000610c9682610c68565b9150819050919050565b600082825260208201905092915050565b7f5472616e73666572206661696c65640000000000000000000000000000000000600082015250565b6000610ce7600f83610ca0565b9150610cf282610cb1565b602082019050919050565b60006020820190508181036000830152610d1681610cda565b9050919050565b7f596f75206e65656420746f207370656e64206d6f726520455448210000000000600082015250565b6000610d53601b83610ca0565b9150610d5e82610d1d565b602082019050919050565b60006020820190508181036000830152610d8281610d46565b9050919050565b7f4e487b7100000000000000000000000000000000000000000000000000000000600052601160045260246000fd5b6000610dc382610acb565b9150610dce83610acb565b9250828201905080821115610de657610de5610d89565b5b92915050565b6000610df782610acb565b9150610e0283610acb565b9250828202610e1081610acb565b91508282048414831517610e2757610e26610d89565b5b5092915050565b7f4e487b7100000000000000000000000000000000000000000000000000000000600052601260045260246000fd5b6000610e6882610acb565b9150610e7383610acb565b925082610e8357610e82610e2e565b5b828204905092915050565b600069ffffffffffffffffffff82169050919050565b610ead81610e8e565b8114610eb857600080fd5b50565b600081519050610eca81610ea4565b92915050565b6000819050919050565b610ee381610ed0565b8114610eee57600080fd5b50565b600081519050610f0081610eda565b92915050565b600081519050610f1581610ba3565b92915050565b600080600080600060a08688031215610f3757610f36610a3b565b5b6000610f4588828901610ebb565b9550506020610f5688828901610ef1565b9450506040610f6788828901610f06565b9350506060610f7888828901610f06565b9250506080610f8988828901610ebb565b9150509295509295909350565b6000610fa182610ed0565b9150610fac83610ed0565b9250828202610fba81610ed0565b91507f80000000000000000000000000000000000000000000000000000000000000008414600084121615610ff257610ff1610d89565b5b828205841483151761100757611006610d89565b5b509291505056fea264697066735822122039ade44eb921d48b0bdc2a091b6f92228fc3545e404b740ec9fcd6b72a9fa23364736f6c634300081c0033",
  "linkReferences": {},
  "deployedLinkReferences": {}
}