{
  "_format": "hh-sol-artifact-1",
  "contractName": "FundMe",
  "sourceName": "contracts/FundMe.sol",
  "abi": [
    {
      "inputs": [
        {
          "internalType": "address",
          "name": "s_priceFeedAddress",
          "type": "address"
        }
      ],
      "stateMutability": "nonpayable",
      "type": "constructor"
    },
    {
      "inputs": [],
      "name": "FundMe__NotOwner",
      "type": "error"
    },
    {
      "inputs": [],
      "name": "MINIMUM_USD",
      "outputs": [
        {
          "internalType": "uint256",
          "name": "",
          "type": "uint256"
        }
      ],
      "stateMutability": "view",
      "type": "function"
    },
    {
      "inputs": [],
      "name": "cheaperWithdraw",
      "outputs": [],
      "stateMutability": "payable",
      "type": "function"
    },
    {
      "inputs": [],
      "name": "fund",
      "outputs": [],
      "stateMutability": "payable",
      "type": "function"
    },
    {
      "inputs": [
        {
          "internalType": "address",
          "name": "fundingAddress",
          "type": "address"
        }
      ],
      "name": "getAddressToAmountFunded",
      "outputs": [
        {
          "internalType": "uint256",
          "name": "",
          "type": "uint256"
        }
      ],
      "stateMutability": "view",
      "type": "function"
    },
    {
      "inputs": [
        {
          "internalType": "uint256",
          "name": "index",
          "type": "uint256"
        }
      ],
      "name": "getFunder",
      "outputs": [
        {
          "internalType": "address",
          "name": "",
          "type": "address"
        }
      ],
      "stateMutability": "view",
      "type": "function"
    },
    {
      "inputs": [],
      "name": "getOwner",
      "outputs": [
        {
          "internalType": "address",
          "name": "",
          "type": "address"
        }
      ],
      "stateMutability": "view",
      "type": "function"
    },
    {
      "inputs": [],
      "name": "s_priceFeed",
      "outputs": [
        {
          "internalType": "contract AggregatorV3Interface",
          "name": "",
          "type": "address"
        }
      ],
      "stateMutability": "view",
      "type": "function"
    },
    {
      "inputs": [],
      "name": "withdraw",
      "outputs": [],
      "stateMutability": "payable",
      "type": "function"
    }
  ],
  "bytecode": "0x60a060405234801561001057600080fd5b506040516111c83803806111c883398181016040528101906100329190610110565b3373ffffffffffffffffffffffffffffffffffffffff1660808173ffffffffffffffffffffffffffffffffffffffff168152505080600260006101000a81548173ffffffffffffffffffffffffffffffffffffffff021916908373ffffffffffffffffffffffffffffffffffffffff1602179055505061013d565b600080fd5b600073ffffffffffffffffffffffffffffffffffffffff82169050919050565b60006100dd826100b2565b9050919050565b6100ed816100d2565b81146100f857600080fd5b50565b60008151905061010a816100e4565b92915050565b600060208284031215610126576101256100ad565b5b6000610134848285016100fb565b91505092915050565b6080516110546101746000396000818161020a0152818161039701528181610473015281816105d401526107c401526110546000f3fe60806040526004361061007b5760003560e01c8063893d20e81161004e578063893d20e81461011d578063b60d428814610148578063be2693f014610152578063d7b4750c1461015c5761007b565b80630343fb25146100805780630ec3b027146100bd5780633ccfd60b146100e85780636b69a592146100f2575b600080fd5b34801561008c57600080fd5b506100a760048036038101906100a29190610aae565b610199565b6040516100b49190610af4565b60405180910390f35b3480156100c957600080fd5b506100d26101e2565b6040516100df9190610b6e565b60405180910390f35b6100f0610208565b005b3480156100fe57600080fd5b50610107610462565b6040516101149190610af4565b60405180910390f35b34801561012957600080fd5b5061013261046f565b60405161013f9190610b98565b60405180910390f35b610150610497565b005b61015a6105d2565b005b34801561016857600080fd5b50610183600480360381019061017e9190610bdf565b610890565b6040516101909190610b98565b60405180910390f35b6000600160008373ffffffffffffffffffffffffffffffffffffffff1673ffffffffffffffffffffffffffffffffffffffff168152602001908152602001600020549050919050565b600260009054906101000a900473ffffffffffffffffffffffffffffffffffffffff1681565b7f000000000000000000000000000000000000000000000000000000000000000073ffffffffffffffffffffffffffffffffffffffff163373ffffffffffffffffffffffffffffffffffffffff161461028d576040517f579610db00000000000000000000000000000000000000000000000000000000815260040160405180910390fd5b60005b6000805490508110156103325760008082815481106102b2576102b1610c0c565b5b9060005260206000200160009054906101000a900473ffffffffffffffffffffffffffffffffffffffff1690506000600160008373ffffffffffffffffffffffffffffffffffffffff1673ffffffffffffffffffffffffffffffffffffffff16815260200190815260200160002081905550508080600101915050610290565b50600067ffffffffffffffff81111561034e5761034d610c3b565b5b60405190808252806020026020018201604052801561037c5781602001602082028036833780820191505090505b50600090805190602001906103929291906109a4565b5060007f000000000000000000000000000000000000000000000000000000000000000073ffffffffffffffffffffffffffffffffffffffff16476040516103d990610c9b565b60006040518083038185875af1925050503d8060008114610416576040519150601f19603f3d011682016040523d82523d6000602084013e61041b565b606091505b505090508061045f576040517f08c379a000000000000000000000000000000000000000000000000000000000815260040161045690610d0d565b60405180910390fd5b50565b6802b5e3af16b188000081565b60007f0000000000000000000000000000000000000000000000000000000000000000905090565b6802b5e3af16b18800006104d6600260009054906101000a900473ffffffffffffffffffffffffffffffffffffffff16346108d790919063ffffffff16565b1015610517576040517f08c379a000000000000000000000000000000000000000000000000000000000815260040161050e90610d79565b60405180910390fd5b34600160003373ffffffffffffffffffffffffffffffffffffffff1673ffffffffffffffffffffffffffffffffffffffff16815260200190815260200160002060008282546105669190610dc8565b925050819055506000339080600181540180825580915050600190039060005260206000200160009091909190916101000a81548173ffffffffffffffffffffffffffffffffffffffff021916908373ffffffffffffffffffffffffffffffffffffffff160217905550565b7f000000000000000000000000000000000000000000000000000000000000000073ffffffffffffffffffffffffffffffffffffffff163373ffffffffffffffffffffffffffffffffffffffff1614610657576040517f579610db00000000000000000000000000000000000000000000000000000000815260040160405180910390fd5b6000808054806020026020016040519081016040528092919081815260200182805480156106da57602002820191906000526020600020905b8160009054906101000a900473ffffffffffffffffffffffffffffffffffffffff1673ffffffffffffffffffffffffffffffffffffffff1681526020019060010190808311610690575b5050505050905060005b815181101561075f57600082828151811061070257610701610c0c565b5b602002602001015190506000600160008373ffffffffffffffffffffffffffffffffffffffff1673ffffffffffffffffffffffffffffffffffffffff168152602001908152602001600020819055505080806001019150506106e4565b50600067ffffffffffffffff81111561077b5761077a610c3b565b5b6040519080825280602002602001820160405280156107a95781602001602082028036833780820191505090505b50600090805190602001906107bf9291906109a4565b5060007f000000000000000000000000000000000000000000000000000000000000000073ffffffffffffffffffffffffffffffffffffffff164760405161080690610c9b565b60006040518083038185875af1925050503d8060008114610843576040519150601f19603f3d011682016040523d82523d6000602084013e610848565b606091505b505090508061088c576040517f08c379a000000000000000000000000000000000000000000000000000000000815260040161088390610d0d565b60405180910390fd5b5050565b60008082815481106108a5576108a4610c0c565b5b9060005260206000200160009054906101000a900473ffffffffffffffffffffffffffffffffffffffff169050919050565b6000806108e383610913565b90506000670de0b6b3a764000085836108fc9190610dfc565b6109069190610e6d565b9050809250505092915050565b6000808273ffffffffffffffffffffffffffffffffffffffff1663feaf968c6040518163ffffffff1660e01b815260040160a060405180830381865afa158015610961573d6000803e3d6000fd5b505050506040513d601f19601f820116820180604052508101906109859190610f2b565b5050509150506402540be4008161099c9190610fa6565b915050919050565b828054828255906000526020600020908101928215610a1d579160200282015b82811115610a1c5782518260006101000a81548173ffffffffffffffffffffffffffffffffffffffff021916908373ffffffffffffffffffffffffffffffffffffffff160217905550916020019190600101906109c4565b5b509050610a2a9190610a2e565b5090565b5b80821115610a47576000816000905550600101610a2f565b5090565b600080fd5b600073ffffffffffffffffffffffffffffffffffffffff82169050919050565b6000610a7b82610a50565b9050919050565b610a8b81610a70565b8114610a9657600080fd5b50565b600081359050610aa881610a82565b92915050565b600060208284031215610ac457610ac3610a4b565b5b6000610ad284828501610a99565b91505092915050565b6000819050919050565b610aee81610adb565b82525050565b6000602082019050610b096000830184610ae5565b92915050565b6000819050919050565b6000610b34610b2f610b2a84610a50565b610b0f565b610a50565b9050919050565b6000610b4682610b19565b9050919050565b6000610b5882610b3b565b9050919050565b610b6881610b4d565b82525050565b6000602082019050610b836000830184610b5f565b92915050565b610b9281610a70565b82525050565b6000602082019050610bad6000830184610b89565b92915050565b610bbc81610adb565b8114610bc757600080fd5b50565b600081359050610bd981610bb3565b92915050565b600060208284031215610bf557610bf4610a4b565b5b6000610c0384828501610bca565b91505092915050565b7f4e487b7100000000000000000000000000000000000000000000000000000000600052603260045260246000fd5b7f4e487b7100000000000000000000000000000000000000000000000000000000600052604160045260246000fd5b600081905092915050565b50565b6000610c85600083610c6a565b9150610c9082610c75565b600082019050919050565b6000610ca682610c78565b9150819050919050565b600082825260208201905092915050565b7f5472616e73666572206661696c65640000000000000000000000000000000000600082015250565b6000610cf7600f83610cb0565b9150610d0282610cc1565b602082019050919050565b60006020820190508181036000830152610d2681610cea565b9050919050565b7f596f75206e65656420746f207370656e64206d6f726520455448210000000000600082015250565b6000610d63601b83610cb0565b9150610d6e82610d2d565b602082019050919050565b60006020820190508181036000830152610d9281610d56565b9050919050565b7f4e487b7100000000000000000000000000000000000000000000000000000000600052601160045260246000fd5b6000610dd382610adb565b9150610dde83610adb565b9250828201905080821115610df657610df5610d99565b5b92915050565b6000610e0782610adb565b9150610e1283610adb565b9250828202610e2081610adb565b91508282048414831517610e3757610e36610d99565b5b5092915050565b7f4e487b7100000000000000000000000000000000000000000000000000000000600052601260045260246000fd5b6000610e7882610adb565b9150610e8383610adb565b925082610e9357610e92610e3e565b5b828204905092915050565b600069ffffffffffffffffffff82169050919050565b610ebd81610e9e565b8114610ec857600080fd5b50565b600081519050610eda81610eb4565b92915050565b6000819050919050565b610ef381610ee0565b8114610efe57600080fd5b50565b600081519050610f1081610eea565b92915050565b600081519050610f2581610bb3565b92915050565b600080600080600060a08688031215610f4757610f46610a4b565b5b6000610f5588828901610ecb565b9550506020610f6688828901610f01565b9450506040610f7788828901610f16565b9350506060610f8888828901610f16565b9250506080610f9988828901610ecb565b9150509295509295909350565b6000610fb182610ee0565b9150610fbc83610ee0565b9250828202610fca81610ee0565b91507f8000000000000000000000000000000000000000000000000000000000000000841460008412161561100257611001610d99565b5b828205841483151761101757611016610d99565b5b509291505056fea2646970667358221220d51429b8fdad19b346afe513250469ca1a6217d46489e80d5234db508289c43a64736f6c634300081c0033",
  "linkReferences": {},
  "deployedLinkReferences": {}
}