{
  "_format": "hh-sol-artifact-1",
  "contractName": "FundMe",
  "sourceName": "contracts/FundMe.sol",
  "abi": [
    {
      "inputs": [],
      "stateMutability": "nonpayable",
      "type": "constructor"
    },
    {
      "inputs": [],
      "name": "FundMe__NotOwner",
      "type": "error"
    },
    {
      "inputs": [],
      "name": "MINIMUM_USD",
      "outputs": [
        {
          "internalType": "uint256",
          "name": "",
          "type": "uint256"
        }
      ],
      "stateMutability": "view",
      "type": "function"
    },
    {
      "inputs": [],
      "name": "cheaperWithdraw",
      "outputs": [],
      "stateMutability": "nonpayable",
      "type": "function"
    },
    {
      "inputs": [],
      "name": "fund",
      "outputs": [],
      "stateMutability": "payable",
      "type": "function"
    },
    {
      "inputs": [
        {
          "internalType": "address",
          "name": "fundingAddress",
          "type": "address"
        }
      ],
      "name": "getAddressToAmountFunded",
      "outputs": [
        {
          "internalType": "uint256",
          "name": "",
          "type": "uint256"
        }
      ],
      "stateMutability": "view",
      "type": "function"
    },
    {
      "inputs": [
        {
          "internalType": "uint256",
          "name": "index",
          "type": "uint256"
        }
      ],
      "name": "getFunder",
      "outputs": [
        {
          "internalType": "address",
          "name": "",
          "type": "address"
        }
      ],
      "stateMutability": "view",
      "type": "function"
    },
    {
      "inputs": [],
      "name": "getOwner",
      "outputs": [
        {
          "internalType": "address",
          "name": "",
          "type": "address"
        }
      ],
      "stateMutability": "view",
      "type": "function"
    },
    {
      "inputs": [],
      "name": "withdraw",
      "outputs": [],
      "stateMutability": "nonpayable",
      "type": "function"
    }
  ],
  "bytecode": "0x60a060405234801561001057600080fd5b503373ffffffffffffffffffffffffffffffffffffffff1660808173ffffffffffffffffffffffffffffffffffffffff1681525050608051610f8261007c600039600081816101c801528181610355015281816104310152818161056601526107560152610f826000f3fe6080604052600436106100705760003560e01c8063893d20e81161004e578063893d20e8146100f4578063b60d42881461011f578063be2693f014610129578063d7b4750c1461014057610070565b80630343fb25146100755780633ccfd60b146100b25780636b69a592146100c9575b600080fd5b34801561008157600080fd5b5061009c60048036038101906100979190610a56565b61017d565b6040516100a99190610a9c565b60405180910390f35b3480156100be57600080fd5b506100c76101c6565b005b3480156100d557600080fd5b506100de610420565b6040516100eb9190610a9c565b60405180910390f35b34801561010057600080fd5b5061010961042d565b6040516101169190610ac6565b60405180910390f35b610127610455565b005b34801561013557600080fd5b5061013e610564565b005b34801561014c57600080fd5b5061016760048036038101906101629190610b0d565b610822565b6040516101749190610ac6565b60405180910390f35b6000600160008373ffffffffffffffffffffffffffffffffffffffff1673ffffffffffffffffffffffffffffffffffffffff168152602001908152602001600020549050919050565b7f000000000000000000000000000000000000000000000000000000000000000073ffffffffffffffffffffffffffffffffffffffff163373ffffffffffffffffffffffffffffffffffffffff161461024b576040517f579610db00000000000000000000000000000000000000000000000000000000815260040160405180910390fd5b60005b6000805490508110156102f05760008082815481106102705761026f610b3a565b5b9060005260206000200160009054906101000a900473ffffffffffffffffffffffffffffffffffffffff1690506000600160008373ffffffffffffffffffffffffffffffffffffffff1673ffffffffffffffffffffffffffffffffffffffff1681526020019081526020016000208190555050808060010191505061024e565b50600067ffffffffffffffff81111561030c5761030b610b69565b5b60405190808252806020026020018201604052801561033a5781602001602082028036833780820191505090505b506000908051906020019061035092919061094c565b5060007f000000000000000000000000000000000000000000000000000000000000000073ffffffffffffffffffffffffffffffffffffffff164760405161039790610bc9565b60006040518083038185875af1925050503d80600081146103d4576040519150601f19603f3d011682016040523d82523d6000602084013e6103d9565b606091505b505090508061041d576040517f08c379a000000000000000000000000000000000000000000000000000000000815260040161041490610c3b565b60405180910390fd5b50565b6802b5e3af16b188000081565b60007f0000000000000000000000000000000000000000000000000000000000000000905090565b6802b5e3af16b188000061046834610869565b10156104a9576040517f08c379a00000000000000000000000000000000000000000000000000000000081526004016104a090610ca7565b60405180910390fd5b34600160003373ffffffffffffffffffffffffffffffffffffffff1673ffffffffffffffffffffffffffffffffffffffff16815260200190815260200160002060008282546104f89190610cf6565b925050819055506000339080600181540180825580915050600190039060005260206000200160009091909190916101000a81548173ffffffffffffffffffffffffffffffffffffffff021916908373ffffffffffffffffffffffffffffffffffffffff160217905550565b7f000000000000000000000000000000000000000000000000000000000000000073ffffffffffffffffffffffffffffffffffffffff163373ffffffffffffffffffffffffffffffffffffffff16146105e9576040517f579610db00000000000000000000000000000000000000000000000000000000815260040160405180910390fd5b60008080548060200260200160405190810160405280929190818152602001828054801561066c57602002820191906000526020600020905b8160009054906101000a900473ffffffffffffffffffffffffffffffffffffffff1673ffffffffffffffffffffffffffffffffffffffff1681526020019060010190808311610622575b5050505050905060005b81518110156106f157600082828151811061069457610693610b3a565b5b602002602001015190506000600160008373ffffffffffffffffffffffffffffffffffffffff1673ffffffffffffffffffffffffffffffffffffffff16815260200190815260200160002081905550508080600101915050610676565b50600067ffffffffffffffff81111561070d5761070c610b69565b5b60405190808252806020026020018201604052801561073b5781602001602082028036833780820191505090505b506000908051906020019061075192919061094c565b5060007f000000000000000000000000000000000000000000000000000000000000000073ffffffffffffffffffffffffffffffffffffffff164760405161079890610bc9565b60006040518083038185875af1925050503d80600081146107d5576040519150601f19603f3d011682016040523d82523d6000602084013e6107da565b606091505b505090508061081e576040517f08c379a000000000000000000000000000000000000000000000000000000000815260040161081590610c3b565b60405180910390fd5b5050565b600080828154811061083757610836610b3a565b5b9060005260206000200160009054906101000a900473ffffffffffffffffffffffffffffffffffffffff169050919050565b6000806108746108a3565b90506000670de0b6b3a7640000848361088d9190610d2a565b6108979190610d9b565b90508092505050919050565b60008073694aa1769357215de4fac081bf1f309adc325306905060008173ffffffffffffffffffffffffffffffffffffffff1663feaf968c6040518163ffffffff1660e01b815260040160a060405180830381865afa15801561090a573d6000803e3d6000fd5b505050506040513d601f19601f8201168201806040525081019061092e9190610e59565b5050509150506402540be400816109459190610ed4565b9250505090565b8280548282559060005260206000209081019282156109c5579160200282015b828111156109c45782518260006101000a81548173ffffffffffffffffffffffffffffffffffffffff021916908373ffffffffffffffffffffffffffffffffffffffff1602179055509160200191906001019061096c565b5b5090506109d291906109d6565b5090565b5b808211156109ef5760008160009055506001016109d7565b5090565b600080fd5b600073ffffffffffffffffffffffffffffffffffffffff82169050919050565b6000610a23826109f8565b9050919050565b610a3381610a18565b8114610a3e57600080fd5b50565b600081359050610a5081610a2a565b92915050565b600060208284031215610a6c57610a6b6109f3565b5b6000610a7a84828501610a41565b91505092915050565b6000819050919050565b610a9681610a83565b82525050565b6000602082019050610ab16000830184610a8d565b92915050565b610ac081610a18565b82525050565b6000602082019050610adb6000830184610ab7565b92915050565b610aea81610a83565b8114610af557600080fd5b50565b600081359050610b0781610ae1565b92915050565b600060208284031215610b2357610b226109f3565b5b6000610b3184828501610af8565b91505092915050565b7f4e487b7100000000000000000000000000000000000000000000000000000000600052603260045260246000fd5b7f4e487b7100000000000000000000000000000000000000000000000000000000600052604160045260246000fd5b600081905092915050565b50565b6000610bb3600083610b98565b9150610bbe82610ba3565b600082019050919050565b6000610bd482610ba6565b9150819050919050565b600082825260208201905092915050565b7f5472616e73666572206661696c65640000000000000000000000000000000000600082015250565b6000610c25600f83610bde565b9150610c3082610bef565b602082019050919050565b60006020820190508181036000830152610c5481610c18565b9050919050565b7f596f75206e65656420746f207370656e64206d6f726520455448210000000000600082015250565b6000610c91601b83610bde565b9150610c9c82610c5b565b602082019050919050565b60006020820190508181036000830152610cc081610c84565b9050919050565b7f4e487b7100000000000000000000000000000000000000000000000000000000600052601160045260246000fd5b6000610d0182610a83565b9150610d0c83610a83565b9250828201905080821115610d2457610d23610cc7565b5b92915050565b6000610d3582610a83565b9150610d4083610a83565b9250828202610d4e81610a83565b91508282048414831517610d6557610d64610cc7565b5b5092915050565b7f4e487b7100000000000000000000000000000000000000000000000000000000600052601260045260246000fd5b6000610da682610a83565b9150610db183610a83565b925082610dc157610dc0610d6c565b5b828204905092915050565b600069ffffffffffffffffffff82169050919050565b610deb81610dcc565b8114610df657600080fd5b50565b600081519050610e0881610de2565b92915050565b6000819050919050565b610e2181610e0e565b8114610e2c57600080fd5b50565b600081519050610e3e81610e18565b92915050565b600081519050610e5381610ae1565b92915050565b600080600080600060a08688031215610e7557610e746109f3565b5b6000610e8388828901610df9565b9550506020610e9488828901610e2f565b9450506040610ea588828901610e44565b9350506060610eb688828901610e44565b9250506080610ec788828901610df9565b9150509295509295909350565b6000610edf82610e0e565b9150610eea83610e0e565b9250828202610ef881610e0e565b91507f80000000000000000000000000000000000000000000000000000000000000008414600084121615610f3057610f2f610cc7565b5b8282058414831517610f4557610f44610cc7565b5b509291505056fea26469706673582212208b9518cf103e5935ff78ff23c0047e9870cd74974a193489808c2a99c09b6c3e64736f6c634300081c0033",
  "linkReferences": {},
  "deployedLinkReferences": {}
}