{
  "_format": "hh-sol-artifact-1",
  "contractName": "Raffle",
  "sourceName": "contracts/Raffle.sol",
  "abi": [
    {
      "inputs": [
        {
          "internalType": "address",
          "name": "vrfCoordinatorV2",
          "type": "address"
        },
        {
          "internalType": "uint256",
          "name": "entranceFee",
          "type": "uint256"
        }
      ],
      "stateMutability": "nonpayable",
      "type": "constructor"
    },
    {
      "inputs": [
        {
          "internalType": "address",
          "name": "have",
          "type": "address"
        },
        {
          "internalType": "address",
          "name": "want",
          "type": "address"
        }
      ],
      "name": "OnlyCoordinatorCanFulfill",
      "type": "error"
    },
    {
      "inputs": [],
      "name": "Raffle__NotEnoughETHEntered",
      "type": "error"
    },
    {
      "anonymous": false,
      "inputs": [
        {
          "indexed": true,
          "internalType": "address",
          "name": "player",
          "type": "address"
        }
      ],
      "name": "RaffleEnter",
      "type": "event"
    },
    {
      "inputs": [],
      "name": "enterRaffle",
      "outputs": [],
      "stateMutability": "payable",
      "type": "function"
    },
    {
      "inputs": [],
      "name": "getEntranceFee",
      "outputs": [
        {
          "internalType": "uint256",
          "name": "",
          "type": "uint256"
        }
      ],
      "stateMutability": "view",
      "type": "function"
    },
    {
      "inputs": [
        {
          "internalType": "uint256",
          "name": "index",
          "type": "uint256"
        }
      ],
      "name": "getPlayer",
      "outputs": [
        {
          "internalType": "address",
          "name": "",
          "type": "address"
        }
      ],
      "stateMutability": "view",
      "type": "function"
    },
    {
      "inputs": [],
      "name": "pickRandomWinner",
      "outputs": [],
      "stateMutability": "nonpayable",
      "type": "function"
    },
    {
      "inputs": [
        {
          "internalType": "uint256",
          "name": "requestId",
          "type": "uint256"
        },
        {
          "internalType": "uint256[]",
          "name": "randomWords",
          "type": "uint256[]"
        }
      ],
      "name": "rawFulfillRandomWords",
      "outputs": [],
      "stateMutability": "nonpayable",
      "type": "function"
    }
  ],
  "bytecode": "0x60a060405234801561001057600080fd5b506040516107ad3803806107ad8339818101604052810190610032919061010f565b818073ffffffffffffffffffffffffffffffffffffffff1660808173ffffffffffffffffffffffffffffffffffffffff16815250505080600081905550505061014f565b600080fd5b600073ffffffffffffffffffffffffffffffffffffffff82169050919050565b60006100a68261007b565b9050919050565b6100b68161009b565b81146100c157600080fd5b50565b6000815190506100d3816100ad565b92915050565b6000819050919050565b6100ec816100d9565b81146100f757600080fd5b50565b600081519050610109816100e3565b92915050565b6000806040838503121561012657610125610076565b5b6000610134858286016100c4565b9250506020610145858286016100fa565b9150509250929050565b60805161063c6101716000396000818161010c0152610160015261063c6000f3fe60806040526004361061004a5760003560e01c806309bc33a71461004f5780631fe543e31461007a5780632cfcc539146100a3578063898da229146100ad578063e55ae4e8146100c4575b600080fd5b34801561005b57600080fd5b50610064610101565b6040516100719190610315565b60405180910390f35b34801561008657600080fd5b506100a1600480360381019061009c91906104c9565b61010a565b005b6100ab6101ca565b005b3480156100b957600080fd5b506100c26102ae565b005b3480156100d057600080fd5b506100eb60048036038101906100e69190610525565b6102b0565b6040516100f89190610593565b60405180910390f35b60008054905090565b7f000000000000000000000000000000000000000000000000000000000000000073ffffffffffffffffffffffffffffffffffffffff163373ffffffffffffffffffffffffffffffffffffffff16146101bc57337f00000000000000000000000000000000000000000000000000000000000000006040517f1cf993f40000000000000000000000000000000000000000000000000000000081526004016101b39291906105ae565b60405180910390fd5b6101c682826102f8565b5050565b600054341015610206576040517fbd4e069500000000000000000000000000000000000000000000000000000000815260040160405180910390fd5b6001339080600181540180825580915050600190039060005260206000200160009091909190916101000a81548173ffffffffffffffffffffffffffffffffffffffff021916908373ffffffffffffffffffffffffffffffffffffffff1602179055503373ffffffffffffffffffffffffffffffffffffffff167f0805e1d667bddb8a95f0f09880cf94f403fb596ce79928d9f29b74203ba284d460405160405180910390a2565b565b6000600182815481106102c6576102c56105d7565b5b9060005260206000200160009054906101000a900473ffffffffffffffffffffffffffffffffffffffff169050919050565b5050565b6000819050919050565b61030f816102fc565b82525050565b600060208201905061032a6000830184610306565b92915050565b6000604051905090565b600080fd5b600080fd5b61034d816102fc565b811461035857600080fd5b50565b60008135905061036a81610344565b92915050565b600080fd5b6000601f19601f8301169050919050565b7f4e487b7100000000000000000000000000000000000000000000000000000000600052604160045260246000fd5b6103be82610375565b810181811067ffffffffffffffff821117156103dd576103dc610386565b5b80604052505050565b60006103f0610330565b90506103fc82826103b5565b919050565b600067ffffffffffffffff82111561041c5761041b610386565b5b602082029050602081019050919050565b600080fd5b600061044561044084610401565b6103e6565b905080838252602082019050602084028301858111156104685761046761042d565b5b835b81811015610491578061047d888261035b565b84526020840193505060208101905061046a565b5050509392505050565b600082601f8301126104b0576104af610370565b5b81356104c0848260208601610432565b91505092915050565b600080604083850312156104e0576104df61033a565b5b60006104ee8582860161035b565b925050602083013567ffffffffffffffff81111561050f5761050e61033f565b5b61051b8582860161049b565b9150509250929050565b60006020828403121561053b5761053a61033a565b5b60006105498482850161035b565b91505092915050565b600073ffffffffffffffffffffffffffffffffffffffff82169050919050565b600061057d82610552565b9050919050565b61058d81610572565b82525050565b60006020820190506105a86000830184610584565b92915050565b60006040820190506105c36000830185610584565b6105d06020830184610584565b9392505050565b7f4e487b7100000000000000000000000000000000000000000000000000000000600052603260045260246000fdfea2646970667358221220a95e0363efbee0228566364e8cd5f49a7e574fb66af8a542e3444a29ba2930ec64736f6c634300081c0033",
  "linkReferences": {},
  "deployedLinkReferences": {}
}