{
  "_format": "hh-sol-artifact-1",
  "contractName": "Raffle",
  "sourceName": "contracts/Raffle.sol",
  "abi": [
    {
      "inputs": [
        {
          "internalType": "address",
          "name": "vrfCoordinatorV2",
          "type": "address"
        },
        {
          "internalType": "uint256",
          "name": "entranceFee",
          "type": "uint256"
        },
        {
          "internalType": "bytes32",
          "name": "gasLane",
          "type": "bytes32"
        },
        {
          "internalType": "uint64",
          "name": "subscriptionId",
          "type": "uint64"
        },
        {
          "internalType": "uint32",
          "name": "callbackGasLimit",
          "type": "uint32"
        }
      ],
      "stateMutability": "nonpayable",
      "type": "constructor"
    },
    {
      "inputs": [
        {
          "internalType": "address",
          "name": "have",
          "type": "address"
        },
        {
          "internalType": "address",
          "name": "want",
          "type": "address"
        }
      ],
      "name": "OnlyCoordinatorCanFulfill",
      "type": "error"
    },
    {
      "inputs": [],
      "name": "Raffle__NotEnoughETHEntered",
      "type": "error"
    },
    {
      "anonymous": false,
      "inputs": [
        {
          "indexed": true,
          "internalType": "address",
          "name": "player",
          "type": "address"
        }
      ],
      "name": "RaffleEnter",
      "type": "event"
    },
    {
      "anonymous": false,
      "inputs": [
        {
          "indexed": true,
          "internalType": "uint256",
          "name": "requestId",
          "type": "uint256"
        }
      ],
      "name": "RequestedRaffleWinner",
      "type": "event"
    },
    {
      "inputs": [],
      "name": "enterRaffle",
      "outputs": [],
      "stateMutability": "payable",
      "type": "function"
    },
    {
      "inputs": [],
      "name": "getEntranceFee",
      "outputs": [
        {
          "internalType": "uint256",
          "name": "",
          "type": "uint256"
        }
      ],
      "stateMutability": "view",
      "type": "function"
    },
    {
      "inputs": [
        {
          "internalType": "uint256",
          "name": "index",
          "type": "uint256"
        }
      ],
      "name": "getPlayer",
      "outputs": [
        {
          "internalType": "address",
          "name": "",
          "type": "address"
        }
      ],
      "stateMutability": "view",
      "type": "function"
    },
    {
      "inputs": [
        {
          "internalType": "uint256",
          "name": "requestId",
          "type": "uint256"
        },
        {
          "internalType": "uint256[]",
          "name": "randomWords",
          "type": "uint256[]"
        }
      ],
      "name": "rawFulfillRandomWords",
      "outputs": [],
      "stateMutability": "nonpayable",
      "type": "function"
    },
    {
      "inputs": [],
      "name": "requestRandomWinner",
      "outputs": [],
      "stateMutability": "nonpayable",
      "type": "function"
    }
  ],
  "bytecode": "0x61012060405234801561001157600080fd5b50604051610b79380380610b7983398181016040528101906100339190610232565b848073ffffffffffffffffffffffffffffffffffffffff1660808173ffffffffffffffffffffffffffffffffffffffff168152505050836000819055508473ffffffffffffffffffffffffffffffffffffffff1660a08173ffffffffffffffffffffffffffffffffffffffff16815250508260c081815250508167ffffffffffffffff1660e08167ffffffffffffffff16815250508063ffffffff166101008163ffffffff168152505050505050506102ad565b600080fd5b600073ffffffffffffffffffffffffffffffffffffffff82169050919050565b6000610117826100ec565b9050919050565b6101278161010c565b811461013257600080fd5b50565b6000815190506101448161011e565b92915050565b6000819050919050565b61015d8161014a565b811461016857600080fd5b50565b60008151905061017a81610154565b92915050565b6000819050919050565b61019381610180565b811461019e57600080fd5b50565b6000815190506101b08161018a565b92915050565b600067ffffffffffffffff82169050919050565b6101d3816101b6565b81146101de57600080fd5b50565b6000815190506101f0816101ca565b92915050565b600063ffffffff82169050919050565b61020f816101f6565b811461021a57600080fd5b50565b60008151905061022c81610206565b92915050565b600080600080600060a0868803121561024e5761024d6100e7565b5b600061025c88828901610135565b955050602061026d8882890161016b565b945050604061027e888289016101a1565b935050606061028f888289016101e1565b92505060806102a08882890161021d565b9150509295509295909350565b60805160a05160c05160e051610100516108816102f860003960006103320152600061030f015260006102ee015260006102b201526000818161010c015261016001526108816000f3fe60806040526004361061004a5760003560e01c806309bc33a71461004f5780631fe543e31461007a5780632cfcc539146100a3578063522a1f0b146100ad578063e55ae4e8146100c4575b600080fd5b34801561005b57600080fd5b50610064610101565b604051610071919061044d565b60405180910390f35b34801561008657600080fd5b506100a1600480360381019061009c9190610601565b61010a565b005b6100ab6101ca565b005b3480156100b957600080fd5b506100c26102ae565b005b3480156100d057600080fd5b506100eb60048036038101906100e6919061065d565b6103e8565b6040516100f891906106cb565b60405180910390f35b60008054905090565b7f000000000000000000000000000000000000000000000000000000000000000073ffffffffffffffffffffffffffffffffffffffff163373ffffffffffffffffffffffffffffffffffffffff16146101bc57337f00000000000000000000000000000000000000000000000000000000000000006040517f1cf993f40000000000000000000000000000000000000000000000000000000081526004016101b39291906106e6565b60405180910390fd5b6101c68282610430565b5050565b600054341015610206576040517fbd4e069500000000000000000000000000000000000000000000000000000000815260040160405180910390fd5b6001339080600181540180825580915050600190039060005260206000200160009091909190916101000a81548173ffffffffffffffffffffffffffffffffffffffff021916908373ffffffffffffffffffffffffffffffffffffffff1602179055503373ffffffffffffffffffffffffffffffffffffffff167f0805e1d667bddb8a95f0f09880cf94f403fb596ce79928d9f29b74203ba284d460405160405180910390a2565b60007f000000000000000000000000000000000000000000000000000000000000000073ffffffffffffffffffffffffffffffffffffffff16635d3b1d307f00000000000000000000000000000000000000000000000000000000000000007f000000000000000000000000000000000000000000000000000000000000000060037f000000000000000000000000000000000000000000000000000000000000000060016040518663ffffffff1660e01b8152600401610373959493929190610787565b6020604051808303816000875af1158015610392573d6000803e3d6000fd5b505050506040513d601f19601f820116820180604052508101906103b691906107ef565b9050807fcd6e45c8998311cab7e9d4385596cac867e20a0587194b954fa3a731c93ce78b60405160405180910390a250565b6000600182815481106103fe576103fd61081c565b5b9060005260206000200160009054906101000a900473ffffffffffffffffffffffffffffffffffffffff169050919050565b5050565b6000819050919050565b61044781610434565b82525050565b6000602082019050610462600083018461043e565b92915050565b6000604051905090565b600080fd5b600080fd5b61048581610434565b811461049057600080fd5b50565b6000813590506104a28161047c565b92915050565b600080fd5b6000601f19601f8301169050919050565b7f4e487b7100000000000000000000000000000000000000000000000000000000600052604160045260246000fd5b6104f6826104ad565b810181811067ffffffffffffffff82111715610515576105146104be565b5b80604052505050565b6000610528610468565b905061053482826104ed565b919050565b600067ffffffffffffffff821115610554576105536104be565b5b602082029050602081019050919050565b600080fd5b600061057d61057884610539565b61051e565b905080838252602082019050602084028301858111156105a05761059f610565565b5b835b818110156105c957806105b58882610493565b8452602084019350506020810190506105a2565b5050509392505050565b600082601f8301126105e8576105e76104a8565b5b81356105f884826020860161056a565b91505092915050565b6000806040838503121561061857610617610472565b5b600061062685828601610493565b925050602083013567ffffffffffffffff81111561064757610646610477565b5b610653858286016105d3565b9150509250929050565b60006020828403121561067357610672610472565b5b600061068184828501610493565b91505092915050565b600073ffffffffffffffffffffffffffffffffffffffff82169050919050565b60006106b58261068a565b9050919050565b6106c5816106aa565b82525050565b60006020820190506106e060008301846106bc565b92915050565b60006040820190506106fb60008301856106bc565b61070860208301846106bc565b9392505050565b6000819050919050565b6107228161070f565b82525050565b600067ffffffffffffffff82169050919050565b61074581610728565b82525050565b600061ffff82169050919050565b6107628161074b565b82525050565b600063ffffffff82169050919050565b61078181610768565b82525050565b600060a08201905061079c6000830188610719565b6107a9602083018761073c565b6107b66040830186610759565b6107c36060830185610778565b6107d06080830184610778565b9695505050505050565b6000815190506107e98161047c565b92915050565b60006020828403121561080557610804610472565b5b6000610813848285016107da565b91505092915050565b7f4e487b7100000000000000000000000000000000000000000000000000000000600052603260045260246000fdfea2646970667358221220f124fe5447033dd1b7ffda55397f77d41e75e52470013da86b59ea3856216e6064736f6c634300081c0033",
  "linkReferences": {},
  "deployedLinkReferences": {}
}