{
  "_format": "hh-sol-artifact-1",
  "contractName": "Raffle",
  "sourceName": "contracts/Raffle.sol",
  "abi": [
    {
      "inputs": [
        {
          "internalType": "address",
          "name": "vrfCoordinatorV2",
          "type": "address"
        },
        {
          "internalType": "uint256",
          "name": "entranceFee",
          "type": "uint256"
        },
        {
          "internalType": "bytes32",
          "name": "gasLane",
          "type": "bytes32"
        },
        {
          "internalType": "uint64",
          "name": "subscriptionId",
          "type": "uint64"
        },
        {
          "internalType": "uint32",
          "name": "callbackGasLimit",
          "type": "uint32"
        }
      ],
      "stateMutability": "nonpayable",
      "type": "constructor"
    },
    {
      "inputs": [
        {
          "internalType": "address",
          "name": "have",
          "type": "address"
        },
        {
          "internalType": "address",
          "name": "want",
          "type": "address"
        }
      ],
      "name": "OnlyCoordinatorCanFulfill",
      "type": "error"
    },
    {
      "inputs": [],
      "name": "Raffle__NotEnoughETHEntered",
      "type": "error"
    },
    {
      "inputs": [],
      "name": "Raffle__TransferFailed",
      "type": "error"
    },
    {
      "anonymous": false,
      "inputs": [
        {
          "indexed": true,
          "internalType": "address",
          "name": "player",
          "type": "address"
        }
      ],
      "name": "RaffleEnter",
      "type": "event"
    },
    {
      "anonymous": false,
      "inputs": [
        {
          "indexed": true,
          "internalType": "uint256",
          "name": "requestId",
          "type": "uint256"
        }
      ],
      "name": "RequestedRaffleWinner",
      "type": "event"
    },
    {
      "anonymous": false,
      "inputs": [
        {
          "indexed": true,
          "internalType": "address",
          "name": "winner",
          "type": "address"
        }
      ],
      "name": "WinnerPicked",
      "type": "event"
    },
    {
      "inputs": [],
      "name": "enterRaffle",
      "outputs": [],
      "stateMutability": "payable",
      "type": "function"
    },
    {
      "inputs": [],
      "name": "getEntranceFee",
      "outputs": [
        {
          "internalType": "uint256",
          "name": "",
          "type": "uint256"
        }
      ],
      "stateMutability": "view",
      "type": "function"
    },
    {
      "inputs": [
        {
          "internalType": "uint256",
          "name": "index",
          "type": "uint256"
        }
      ],
      "name": "getPlayer",
      "outputs": [
        {
          "internalType": "address",
          "name": "",
          "type": "address"
        }
      ],
      "stateMutability": "view",
      "type": "function"
    },
    {
      "inputs": [],
      "name": "getRecentWinner",
      "outputs": [
        {
          "internalType": "address",
          "name": "",
          "type": "address"
        }
      ],
      "stateMutability": "view",
      "type": "function"
    },
    {
      "inputs": [
        {
          "internalType": "uint256",
          "name": "requestId",
          "type": "uint256"
        },
        {
          "internalType": "uint256[]",
          "name": "randomWords",
          "type": "uint256[]"
        }
      ],
      "name": "rawFulfillRandomWords",
      "outputs": [],
      "stateMutability": "nonpayable",
      "type": "function"
    },
    {
      "inputs": [],
      "name": "requestRandomWinner",
      "outputs": [],
      "stateMutability": "nonpayable",
      "type": "function"
    }
  ],
  "bytecode": "0x61012060405234801561001157600080fd5b50604051610e1c380380610e1c83398181016040528101906100339190610232565b848073ffffffffffffffffffffffffffffffffffffffff1660808173ffffffffffffffffffffffffffffffffffffffff168152505050836000819055508473ffffffffffffffffffffffffffffffffffffffff1660a08173ffffffffffffffffffffffffffffffffffffffff16815250508260c081815250508167ffffffffffffffff1660e08167ffffffffffffffff16815250508063ffffffff166101008163ffffffff168152505050505050506102ad565b600080fd5b600073ffffffffffffffffffffffffffffffffffffffff82169050919050565b6000610117826100ec565b9050919050565b6101278161010c565b811461013257600080fd5b50565b6000815190506101448161011e565b92915050565b6000819050919050565b61015d8161014a565b811461016857600080fd5b50565b60008151905061017a81610154565b92915050565b6000819050919050565b61019381610180565b811461019e57600080fd5b50565b6000815190506101b08161018a565b92915050565b600067ffffffffffffffff82169050919050565b6101d3816101b6565b81146101de57600080fd5b50565b6000815190506101f0816101ca565b92915050565b600063ffffffff82169050919050565b61020f816101f6565b811461021a57600080fd5b50565b60008151905061022c81610206565b92915050565b600080600080600060a0868803121561024e5761024d6100e7565b5b600061025c88828901610135565b955050602061026d8882890161016b565b945050604061027e888289016101a1565b935050606061028f888289016101e1565b92505060806102a08882890161021d565b9150509295509295909350565b60805160a05160c05160e05161010051610b246102f860003960006103920152600061036f0152600061034e0152600061031201526000818161014201526101960152610b246000f3fe6080604052600436106100555760003560e01c806309bc33a71461005a5780631fe543e3146100855780632cfcc539146100ae578063473f1ddc146100b8578063522a1f0b146100e3578063e55ae4e8146100fa575b600080fd5b34801561006657600080fd5b5061006f610137565b60405161007c919061064a565b60405180910390f35b34801561009157600080fd5b506100ac60048036038101906100a791906107fe565b610140565b005b6100b6610200565b005b3480156100c457600080fd5b506100cd6102e4565b6040516100da919061089b565b60405180910390f35b3480156100ef57600080fd5b506100f861030e565b005b34801561010657600080fd5b50610121600480360381019061011c91906108b6565b610448565b60405161012e919061089b565b60405180910390f35b60008054905090565b7f000000000000000000000000000000000000000000000000000000000000000073ffffffffffffffffffffffffffffffffffffffff163373ffffffffffffffffffffffffffffffffffffffff16146101f257337f00000000000000000000000000000000000000000000000000000000000000006040517f1cf993f40000000000000000000000000000000000000000000000000000000081526004016101e99291906108e3565b60405180910390fd5b6101fc8282610490565b5050565b60005434101561023c576040517fbd4e069500000000000000000000000000000000000000000000000000000000815260040160405180910390fd5b6001339080600181540180825580915050600190039060005260206000200160009091909190916101000a81548173ffffffffffffffffffffffffffffffffffffffff021916908373ffffffffffffffffffffffffffffffffffffffff1602179055503373ffffffffffffffffffffffffffffffffffffffff167f0805e1d667bddb8a95f0f09880cf94f403fb596ce79928d9f29b74203ba284d460405160405180910390a2565b6000600260009054906101000a900473ffffffffffffffffffffffffffffffffffffffff16905090565b60007f000000000000000000000000000000000000000000000000000000000000000073ffffffffffffffffffffffffffffffffffffffff16635d3b1d307f00000000000000000000000000000000000000000000000000000000000000007f000000000000000000000000000000000000000000000000000000000000000060037f000000000000000000000000000000000000000000000000000000000000000060016040518663ffffffff1660e01b81526004016103d3959493929190610984565b6020604051808303816000875af11580156103f2573d6000803e3d6000fd5b505050506040513d601f19601f8201168201806040525081019061041691906109ec565b9050807fcd6e45c8998311cab7e9d4385596cac867e20a0587194b954fa3a731c93ce78b60405160405180910390a250565b60006001828154811061045e5761045d610a19565b5b9060005260206000200160009054906101000a900473ffffffffffffffffffffffffffffffffffffffff169050919050565b6000600180549050826000815181106104ac576104ab610a19565b5b60200260200101516104be9190610a77565b90506000600182815481106104d6576104d5610a19565b5b9060005260206000200160009054906101000a900473ffffffffffffffffffffffffffffffffffffffff16905080600260006101000a81548173ffffffffffffffffffffffffffffffffffffffff021916908373ffffffffffffffffffffffffffffffffffffffff16021790555060008173ffffffffffffffffffffffffffffffffffffffff164760405161056a90610ad9565b60006040518083038185875af1925050503d80600081146105a7576040519150601f19603f3d011682016040523d82523d6000602084013e6105ac565b606091505b50509050806105e7576040517fa1d04b3900000000000000000000000000000000000000000000000000000000815260040160405180910390fd5b8173ffffffffffffffffffffffffffffffffffffffff167f5b690ec4a06fe979403046eaeea5b3ce38524683c3001f662c8b5a829632f7df60405160405180910390a25050505050565b6000819050919050565b61064481610631565b82525050565b600060208201905061065f600083018461063b565b92915050565b6000604051905090565b600080fd5b600080fd5b61068281610631565b811461068d57600080fd5b50565b60008135905061069f81610679565b92915050565b600080fd5b6000601f19601f8301169050919050565b7f4e487b7100000000000000000000000000000000000000000000000000000000600052604160045260246000fd5b6106f3826106aa565b810181811067ffffffffffffffff82111715610712576107116106bb565b5b80604052505050565b6000610725610665565b905061073182826106ea565b919050565b600067ffffffffffffffff821115610751576107506106bb565b5b602082029050602081019050919050565b600080fd5b600061077a61077584610736565b61071b565b9050808382526020820190506020840283018581111561079d5761079c610762565b5b835b818110156107c657806107b28882610690565b84526020840193505060208101905061079f565b5050509392505050565b600082601f8301126107e5576107e46106a5565b5b81356107f5848260208601610767565b91505092915050565b600080604083850312156108155761081461066f565b5b600061082385828601610690565b925050602083013567ffffffffffffffff81111561084457610843610674565b5b610850858286016107d0565b9150509250929050565b600073ffffffffffffffffffffffffffffffffffffffff82169050919050565b60006108858261085a565b9050919050565b6108958161087a565b82525050565b60006020820190506108b0600083018461088c565b92915050565b6000602082840312156108cc576108cb61066f565b5b60006108da84828501610690565b91505092915050565b60006040820190506108f8600083018561088c565b610905602083018461088c565b9392505050565b6000819050919050565b61091f8161090c565b82525050565b600067ffffffffffffffff82169050919050565b61094281610925565b82525050565b600061ffff82169050919050565b61095f81610948565b82525050565b600063ffffffff82169050919050565b61097e81610965565b82525050565b600060a0820190506109996000830188610916565b6109a66020830187610939565b6109b36040830186610956565b6109c06060830185610975565b6109cd6080830184610975565b9695505050505050565b6000815190506109e681610679565b92915050565b600060208284031215610a0257610a0161066f565b5b6000610a10848285016109d7565b91505092915050565b7f4e487b7100000000000000000000000000000000000000000000000000000000600052603260045260246000fd5b7f4e487b7100000000000000000000000000000000000000000000000000000000600052601260045260246000fd5b6000610a8282610631565b9150610a8d83610631565b925082610a9d57610a9c610a48565b5b828206905092915050565b600081905092915050565b50565b6000610ac3600083610aa8565b9150610ace82610ab3565b600082019050919050565b6000610ae482610ab6565b915081905091905056fea2646970667358221220e0ae825ddbf87520cf5954af18419725dbf346d13340466f2811881aa80193fc64736f6c634300081c0033",
  "linkReferences": {},
  "deployedLinkReferences": {}
}